{
  "contractName": "Test2",
  "abi": [
    {
      "constant": true,
      "inputs": [
        {
          "name": "",
          "type": "uint256"
        }
      ],
      "name": "pendingMatches",
      "outputs": [
        {
          "name": "playerUno",
          "type": "address"
        },
        {
          "name": "playerDue",
          "type": "address"
        },
        {
          "name": "turno",
          "type": "uint256"
        }
      ],
      "payable": false,
      "stateMutability": "view",
      "type": "function"
    },
    {
      "constant": true,
      "inputs": [
        {
          "name": "",
          "type": "uint256"
        }
      ],
      "name": "runningMatches",
      "outputs": [
        {
          "name": "playerUno",
          "type": "address"
        },
        {
          "name": "playerDue",
          "type": "address"
        },
        {
          "name": "turno",
          "type": "uint256"
        }
      ],
      "payable": false,
      "stateMutability": "view",
      "type": "function"
    },
    {
      "inputs": [],
      "payable": false,
      "stateMutability": "nonpayable",
      "type": "constructor"
    },
    {
      "anonymous": false,
      "inputs": [],
      "name": "playedEvent",
      "type": "event"
    },
    {
      "constant": false,
      "inputs": [],
      "name": "createMatch",
      "outputs": [],
      "payable": false,
      "stateMutability": "nonpayable",
      "type": "function"
    },
    {
      "constant": false,
      "inputs": [
        {
          "name": "id",
          "type": "uint256"
        }
      ],
      "name": "joinMatch",
      "outputs": [],
      "payable": false,
      "stateMutability": "nonpayable",
      "type": "function"
    },
    {
      "constant": false,
      "inputs": [
        {
          "name": "_x",
          "type": "uint256"
        },
        {
          "name": "_y",
          "type": "uint256"
        },
        {
          "name": "id",
          "type": "uint256"
        }
      ],
      "name": "play",
      "outputs": [],
      "payable": false,
      "stateMutability": "nonpayable",
      "type": "function"
    },
    {
      "constant": true,
      "inputs": [],
      "name": "getPendingMatchesCount",
      "outputs": [
        {
          "name": "",
          "type": "uint256"
        }
      ],
      "payable": false,
      "stateMutability": "view",
      "type": "function"
    }
  ],
  "bytecode": "0x608060405234801561001057600080fd5b50611007806100206000396000f300608060405260043610610078576000357c0100000000000000000000000000000000000000000000000000000000900463ffffffff1680631b7d41841461007d5780639b1c90ef146100a8578063a0cc641a1461014f578063a4627c4e14610166578063ab2e5a1f1461020d578063feb8c4381461024e575b600080fd5b34801561008957600080fd5b5061009261027b565b6040518082815260200191505060405180910390f35b3480156100b457600080fd5b506100d360048036038101908080359060200190929190505050610287565b604051808473ffffffffffffffffffffffffffffffffffffffff1673ffffffffffffffffffffffffffffffffffffffff1681526020018373ffffffffffffffffffffffffffffffffffffffff1673ffffffffffffffffffffffffffffffffffffffff168152602001828152602001935050505060405180910390f35b34801561015b57600080fd5b50610164610300565b005b34801561017257600080fd5b506101916004803603810190808035906020019092919050505061043b565b604051808473ffffffffffffffffffffffffffffffffffffffff1673ffffffffffffffffffffffffffffffffffffffff1681526020018373ffffffffffffffffffffffffffffffffffffffff1673ffffffffffffffffffffffffffffffffffffffff168152602001828152602001935050505060405180910390f35b34801561021957600080fd5b5061024c6004803603810190808035906020019092919080359060200190929190803590602001909291905050506104b4565b005b34801561025a57600080fd5b50610279600480360381019080803590602001909291905050506108c5565b005b60008080549050905090565b60008181548110151561029657fe5b90600052602060002090600c02016000915090508060090160009054906101000a900473ffffffffffffffffffffffffffffffffffffffff169080600a0160009054906101000a900473ffffffffffffffffffffffffffffffffffffffff169080600b0154905083565b610308610c92565b60006080604051908101604052808381526020013373ffffffffffffffffffffffffffffffffffffffff168152602001600073ffffffffffffffffffffffffffffffffffffffff16815260200160008152509080600181540180825580915050906001820390600052602060002090600c02016000909192909190915060008201518160000190600361039c929190610cc1565b5060208201518160090160006101000a81548173ffffffffffffffffffffffffffffffffffffffff021916908373ffffffffffffffffffffffffffffffffffffffff160217905550604082015181600a0160006101000a81548173ffffffffffffffffffffffffffffffffffffffff021916908373ffffffffffffffffffffffffffffffffffffffff160217905550606082015181600b015550505050565b60018181548110151561044a57fe5b90600052602060002090600c02016000915090508060090160009054906101000a900473ffffffffffffffffffffffffffffffffffffffff169080600a0160009054906101000a900473ffffffffffffffffffffffffffffffffffffffff169080600b0154905083565b6104bc610d11565b600084101580156104cd5750600384105b80156104da575060008310155b80156104e65750600383105b15156104f157600080fd5b60018281548110151561050057fe5b90600052602060002090600c02016080604051908101604052908160008201600380602002604051908101604052809291906000905b8282101561058f5783826003020160038060200260405190810160405280929190826003801561057b576020028201915b815481526020019060010190808311610567575b505050505081526020019060010190610536565b5050505081526020016009820160009054906101000a900473ffffffffffffffffffffffffffffffffffffffff1673ffffffffffffffffffffffffffffffffffffffff1673ffffffffffffffffffffffffffffffffffffffff168152602001600a820160009054906101000a900473ffffffffffffffffffffffffffffffffffffffff1673ffffffffffffffffffffffffffffffffffffffff1673ffffffffffffffffffffffffffffffffffffffff168152602001600b820154815250509050806020015173ffffffffffffffffffffffffffffffffffffffff163373ffffffffffffffffffffffffffffffffffffffff16148015610692575060008160600151145b80156106c6575060008160000151856003811015156106ad57fe5b6020020151846003811015156106bf57fe5b6020020151145b1561070a5760018160000151856003811015156106df57fe5b6020020151846003811015156106f157fe5b60200201818152505060018160600181815250506107c2565b806040015173ffffffffffffffffffffffffffffffffffffffff163373ffffffffffffffffffffffffffffffffffffffff1614801561074d575060018160600151145b80156107815750600081600001518560038110151561076857fe5b60200201518460038110151561077a57fe5b6020020151145b156107c157600281600001518560038110151561079a57fe5b6020020151846003811015156107ac57fe5b60200201818152505060008160600181815250505b5b806001838154811015156107d257fe5b90600052602060002090600c02016000820151816000019060036107f7929190610cc1565b5060208201518160090160006101000a81548173ffffffffffffffffffffffffffffffffffffffff021916908373ffffffffffffffffffffffffffffffffffffffff160217905550604082015181600a0160006101000a81548173ffffffffffffffffffffffffffffffffffffffff021916908373ffffffffffffffffffffffffffffffffffffffff160217905550606082015181600b01559050507fa2cb41a7bcb661d2ee447648ab6f91b2e833582b4556e66cad255a9b3e8f875360405160405180910390a150505050565b6108cd610d11565b6000828154811015156108dc57fe5b90600052602060002090600c02016080604051908101604052908160008201600380602002604051908101604052809291906000905b8282101561096b57838260030201600380602002604051908101604052809291908260038015610957576020028201915b815481526020019060010190808311610943575b505050505081526020019060010190610912565b5050505081526020016009820160009054906101000a900473ffffffffffffffffffffffffffffffffffffffff1673ffffffffffffffffffffffffffffffffffffffff1673ffffffffffffffffffffffffffffffffffffffff168152602001600a820160009054906101000a900473ffffffffffffffffffffffffffffffffffffffff1673ffffffffffffffffffffffffffffffffffffffff1673ffffffffffffffffffffffffffffffffffffffff168152602001600b8201548152505090506000600160008054905003815481101515610a4257fe5b90600052602060002090600c0201600083815481101515610a5f57fe5b90600052602060002090600c02016000820181600001906003610a83929190610d6d565b506009820160009054906101000a900473ffffffffffffffffffffffffffffffffffffffff168160090160006101000a81548173ffffffffffffffffffffffffffffffffffffffff021916908373ffffffffffffffffffffffffffffffffffffffff160217905550600a820160009054906101000a900473ffffffffffffffffffffffffffffffffffffffff1681600a0160006101000a81548173ffffffffffffffffffffffffffffffffffffffff021916908373ffffffffffffffffffffffffffffffffffffffff160217905550600b82015481600b01559050506000805480919060019003610b749190610dbc565b5033816040019073ffffffffffffffffffffffffffffffffffffffff16908173ffffffffffffffffffffffffffffffffffffffff16815250506001819080600181540180825580915050906001820390600052602060002090600c020160009091929091909150600082015181600001906003610bf2929190610cc1565b5060208201518160090160006101000a81548173ffffffffffffffffffffffffffffffffffffffff021916908373ffffffffffffffffffffffffffffffffffffffff160217905550604082015181600a0160006101000a81548173ffffffffffffffffffffffffffffffffffffffff021916908373ffffffffffffffffffffffffffffffffffffffff160217905550606082015181600b01555050505050565b610120604051908101604052806003905b610cab610dee565b815260200190600190039081610ca35790505090565b82600380028101928215610d00579160200282015b82811115610cff57825182906003610cef929190610e11565b5091602001919060030190610cd6565b5b509050610d0d9190610e51565b5090565b61018060405190810160405280610d26610e7d565b8152602001600073ffffffffffffffffffffffffffffffffffffffff168152602001600073ffffffffffffffffffffffffffffffffffffffff168152602001600081525090565b82600380028101928215610dab579160030282015b82811115610daa578282906003610d9a929190610eac565b5091600301919060030190610d82565b5b509050610db89190610e51565b5090565b815481835581811115610de957600c0281600c028360005260206000209182019101610de89190610ee9565b5b505050565b606060405190810160405280600390602082028038833980820191505090505090565b8260038101928215610e40579160200282015b82811115610e3f578251825591602001919060010190610e24565b5b509050610e4d9190610f6e565b5090565b610e7a91905b80821115610e765760008181610e6d9190610f93565b50600301610e57565b5090565b90565b610120604051908101604052806003905b610e96610dee565b815260200190600190039081610e8e5790505090565b8260038101928215610ed8579182015b82811115610ed7578254825591600101919060010190610ebc565b5b509050610ee59190610f6e565b5090565b610f6b91905b80821115610f675760008082016000610f089190610fa8565b6009820160006101000a81549073ffffffffffffffffffffffffffffffffffffffff0219169055600a820160006101000a81549073ffffffffffffffffffffffffffffffffffffffff0219169055600b82016000905550600c01610eef565b5090565b90565b610f9091905b80821115610f8c576000816000905550600101610f74565b5090565b90565b50600081556001016000815560010160009055565b5060008181610fb79190610f93565b5060030160008181610fc99190610f93565b506003016000610fd99190610f93565b5600a165627a7a7230582034862c99a9f328ac460b12ce0324918c5e787c9d6d3469555d6c3befd3c6f4f90029",
  "source": "pragma solidity ^0.4.24;\n\ncontract Test2{\n\t\n    event playedEvent();\n\t\n\tconstructor() public {}\n\t\n\tstruct Match{\n        uint[3][3] table;\n    \taddress playerUno;\n    \taddress playerDue;\n    \tuint turno;\n\t}\n\tMatch[] public pendingMatches;\n\tMatch[] public runningMatches;\n\t\n\tfunction createMatch() public {\n\t    uint[3][3] memory emptyTable;\n\t    pendingMatches.push(Match(emptyTable, msg.sender, 0x0, 0));\n\t}\n\t\n\tfunction joinMatch(uint id) public {\n\t    Match memory selectedMatch = pendingMatches[id];\n\t    \n\t    //delete pendingMatches[matchCreator];\n\t    pendingMatches[id] = pendingMatches[pendingMatches.length - 1];\n\t    pendingMatches.length--;\n\t    \n\t    selectedMatch.playerDue = msg.sender;\n\t    runningMatches.push(selectedMatch);\n\t}\n\t\n\tfunction play(uint _x, uint _y, uint id) public{\n\t\trequire(_x>=0 && _x<3 && _y>=0 && _y<3);\n\t\t\n\t\tMatch memory playingMatch = runningMatches[id];\n\t\t\n\t\tif(msg.sender==playingMatch.playerUno && playingMatch.turno==0 && playingMatch.table[_x][_y]==0){\n\t\t\tplayingMatch.table[_x][_y] = 1;\n\t\t\tplayingMatch.turno = 1;\n\t\t}\n\t\telse if(msg.sender==playingMatch.playerDue && playingMatch.turno==1 && playingMatch.table[_x][_y]==0){\n\t\t    playingMatch.table[_x][_y] = 2;\n\t\t    playingMatch.turno = 0;\n\t\t}\n\t\t\n\t\trunningMatches[id] = playingMatch;\n\t\t\n\t\temit playedEvent();\n\t}\n\n\tfunction getPendingMatchesCount() public view returns(uint){\n\t\treturn pendingMatches.length;\n\t}\n}",
  "sourcePath": "/Users/luca/Desktop/tirocinio/tictactoe/contracts/Tictac.sol",
  "compiler": {
    "name": "solc",
    "version": "0.4.24+commit.e67f0147.Emscripten.clang"
  },
  "schemaVersion": "2.0.0",
  "updatedAt": "2018-06-15T09:42:00.598Z"
}