{
  "contractName": "Tictac",
  "abi": [
    {
      "constant": true,
      "inputs": [
        {
          "name": "",
          "type": "address"
        }
      ],
      "name": "matchIndexOfPlayers",
      "outputs": [
        {
          "name": "",
          "type": "uint256"
        }
      ],
      "payable": false,
      "stateMutability": "view",
      "type": "function"
    },
    {
      "constant": true,
      "inputs": [
        {
          "name": "",
          "type": "uint256"
        }
      ],
      "name": "runningMatches",
      "outputs": [
        {
          "name": "playerOne",
          "type": "address"
        },
        {
          "name": "playerTwo",
          "type": "address"
        },
        {
          "name": "turno",
          "type": "uint8"
        },
        {
          "name": "isEnded",
          "type": "bool"
        }
      ],
      "payable": false,
      "stateMutability": "view",
      "type": "function"
    },
    {
      "anonymous": false,
      "inputs": [
        {
          "indexed": false,
          "name": "index",
          "type": "uint256"
        },
        {
          "indexed": true,
          "name": "firstPlayer",
          "type": "address"
        }
      ],
      "name": "newProposedMatch",
      "type": "event"
    },
    {
      "anonymous": false,
      "inputs": [
        {
          "indexed": true,
          "name": "index",
          "type": "uint256"
        },
        {
          "indexed": true,
          "name": "proposer",
          "type": "address"
        },
        {
          "indexed": true,
          "name": "opponent",
          "type": "address"
        }
      ],
      "name": "matchJoined",
      "type": "event"
    },
    {
      "anonymous": false,
      "inputs": [
        {
          "indexed": false,
          "name": "index",
          "type": "uint256"
        },
        {
          "indexed": false,
          "name": "winner",
          "type": "address"
        },
        {
          "indexed": false,
          "name": "loser",
          "type": "address"
        },
        {
          "indexed": false,
          "name": "endTableStatus",
          "type": "uint8[3][3]"
        }
      ],
      "name": "matchEnded",
      "type": "event"
    },
    {
      "anonymous": false,
      "inputs": [
        {
          "indexed": false,
          "name": "index",
          "type": "uint256"
        }
      ],
      "name": "nextMove",
      "type": "event"
    },
    {
      "constant": false,
      "inputs": [],
      "name": "createMatch",
      "outputs": [],
      "payable": false,
      "stateMutability": "nonpayable",
      "type": "function"
    },
    {
      "constant": false,
      "inputs": [
        {
          "name": "_id",
          "type": "uint256"
        },
        {
          "name": "_proposer",
          "type": "address"
        }
      ],
      "name": "joinMatch",
      "outputs": [],
      "payable": false,
      "stateMutability": "nonpayable",
      "type": "function"
    },
    {
      "constant": false,
      "inputs": [
        {
          "name": "_x",
          "type": "uint256"
        },
        {
          "name": "_y",
          "type": "uint256"
        },
        {
          "name": "_index",
          "type": "uint256"
        }
      ],
      "name": "play",
      "outputs": [],
      "payable": false,
      "stateMutability": "nonpayable",
      "type": "function"
    },
    {
      "constant": true,
      "inputs": [],
      "name": "getRunningMatchesCount",
      "outputs": [
        {
          "name": "",
          "type": "uint256"
        }
      ],
      "payable": false,
      "stateMutability": "view",
      "type": "function"
    },
    {
      "constant": true,
      "inputs": [
        {
          "name": "index",
          "type": "uint256"
        }
      ],
      "name": "getRunningMatchAtIndex",
      "outputs": [
        {
          "name": "",
          "type": "uint256"
        },
        {
          "name": "",
          "type": "address"
        },
        {
          "name": "",
          "type": "address"
        },
        {
          "name": "",
          "type": "bool"
        },
        {
          "name": "",
          "type": "uint256"
        }
      ],
      "payable": false,
      "stateMutability": "view",
      "type": "function"
    },
    {
      "constant": true,
      "inputs": [
        {
          "name": "index",
          "type": "uint256"
        }
      ],
      "name": "getRunningMatchBoardAtIndex",
      "outputs": [
        {
          "name": "",
          "type": "uint8[3][3]"
        }
      ],
      "payable": false,
      "stateMutability": "view",
      "type": "function"
    },
    {
      "constant": true,
      "inputs": [],
      "name": "senderIsNotPlaying",
      "outputs": [
        {
          "name": "",
          "type": "bool"
        }
      ],
      "payable": false,
      "stateMutability": "view",
      "type": "function"
    },
    {
      "constant": true,
      "inputs": [
        {
          "name": "_index",
          "type": "uint256"
        },
        {
          "name": "_proposer",
          "type": "address"
        }
      ],
      "name": "isValidMatch",
      "outputs": [
        {
          "name": "",
          "type": "bool"
        }
      ],
      "payable": false,
      "stateMutability": "view",
      "type": "function"
    },
    {
      "constant": true,
      "inputs": [
        {
          "name": "_index",
          "type": "uint256"
        }
      ],
      "name": "isAvailableMatch",
      "outputs": [
        {
          "name": "",
          "type": "bool"
        }
      ],
      "payable": false,
      "stateMutability": "view",
      "type": "function"
    },
    {
      "constant": true,
      "inputs": [
        {
          "name": "_index",
          "type": "uint256"
        }
      ],
      "name": "isHisTurn",
      "outputs": [
        {
          "name": "",
          "type": "bool"
        }
      ],
      "payable": false,
      "stateMutability": "view",
      "type": "function"
    },
    {
      "constant": true,
      "inputs": [
        {
          "name": "_table",
          "type": "uint8[3][3]"
        },
        {
          "name": "_modifiedRow",
          "type": "uint256"
        },
        {
          "name": "_modifiedColumn",
          "type": "uint256"
        }
      ],
      "name": "hasWin",
      "outputs": [
        {
          "name": "",
          "type": "bool"
        }
      ],
      "payable": false,
      "stateMutability": "pure",
      "type": "function"
    },
    {
      "constant": true,
      "inputs": [
        {
          "name": "_a",
          "type": "uint8"
        },
        {
          "name": "_b",
          "type": "uint8"
        },
        {
          "name": "_c",
          "type": "uint8"
        }
      ],
      "name": "triEqual",
      "outputs": [
        {
          "name": "",
          "type": "bool"
        }
      ],
      "payable": false,
      "stateMutability": "pure",
      "type": "function"
    }
  ],
  "bytecode": "0x608060405234801561001057600080fd5b50611aad806100206000396000f3006080604052600436106100d0576000357c0100000000000000000000000000000000000000000000000000000000900463ffffffff1680634cb11f10146100d55780634ee58c1214610161578063607c5171146101b8578063680c9737146101fd5780637c7902bf1461025f578063967ce32d146102c45780639bc0f96614610311578063a0cc641a146103c8578063a4627c4e146103df578063ab2e5a1f14610497578063bc8754a4146104d8578063d7e011481461051d578063e5de4f7b1461054c578063fe0a236e14610577575b600080fd5b3480156100e157600080fd5b5061010060048036038101908080359060200190929190505050610630565b604051808260036000925b818410156101515782846020020151600360200280838360005b83811015610140578082015181840152602081019050610125565b50505050905001926001019261010b565b9250505091505060405180910390f35b34801561016d57600080fd5b506101a2600480360381019080803573ffffffffffffffffffffffffffffffffffffffff1690602001909291905050506106f9565b6040518082815260200191505060405180910390f35b3480156101c457600080fd5b506101e360048036038101908080359060200190929190505050610711565b604051808215151515815260200191505060405180910390f35b34801561020957600080fd5b50610245600480360381019080803560ff169060200190929190803560ff169060200190929190803560ff169060200190929190505050610776565b604051808215151515815260200191505060405180910390f35b34801561026b57600080fd5b506102aa60048036038101908080359060200190929190803573ffffffffffffffffffffffffffffffffffffffff16906020019092919050505061079b565b604051808215151515815260200191505060405180910390f35b3480156102d057600080fd5b5061030f60048036038101908080359060200190929190803573ffffffffffffffffffffffffffffffffffffffff1690602001909291905050506107e7565b005b34801561031d57600080fd5b506103ae600480360381019080806101200190600380602002604051908101604052809291906000905b82821015610389578382606002016003806020026040519081016040528092919082600360200280828437820191505050505081526020019060010190610347565b5050505091929192908035906020019092919080359060200190929190505050610922565b604051808215151515815260200191505060405180910390f35b3480156103d457600080fd5b506103dd610c59565b005b3480156103eb57600080fd5b5061040a60048036038101908080359060200190929190505050610e80565b604051808573ffffffffffffffffffffffffffffffffffffffff1673ffffffffffffffffffffffffffffffffffffffff1681526020018473ffffffffffffffffffffffffffffffffffffffff1673ffffffffffffffffffffffffffffffffffffffff1681526020018360ff1660ff1681526020018215151515815260200194505050505060405180910390f35b3480156104a357600080fd5b506104d6600480360381019080803590602001909291908035906020019092919080359060200190929190505050610f19565b005b3480156104e457600080fd5b506105036004803603810190808035906020019092919050505061157a565b604051808215151515815260200191505060405180910390f35b34801561052957600080fd5b506105326116ec565b604051808215151515815260200191505060405180910390f35b34801561055857600080fd5b50610561611735565b6040518082815260200191505060405180910390f35b34801561058357600080fd5b506105a260048036038101908080359060200190929190505050611741565b604051808681526020018573ffffffffffffffffffffffffffffffffffffffff1673ffffffffffffffffffffffffffffffffffffffff1681526020018473ffffffffffffffffffffffffffffffffffffffff1673ffffffffffffffffffffffffffffffffffffffff168152602001831515151581526020018281526020019550505050505060405180910390f35b61063861184d565b60006001830381548110151561064a57fe5b9060005260206000209060060201600201600380602002604051908101604052809291906000905b828210156106ee578382016003806020026040519081016040528092919082600380156106da576020028201916000905b82829054906101000a900460ff1660ff16815260200190600101906020826000010492830192600103820291508084116106a35790505b505050505081526020019060010190610672565b505050509050919050565b60016020528060005260406000206000915090505481565b60008060006001840381548110151561072657fe5b906000526020600020906006020160010160009054906101000a900473ffffffffffffffffffffffffffffffffffffffff1673ffffffffffffffffffffffffffffffffffffffff16149050919050565b60008260ff168460ff1614801561079257508160ff168460ff16145b90509392505050565b600082600160008473ffffffffffffffffffffffffffffffffffffffff1673ffffffffffffffffffffffffffffffffffffffff1681526020019081526020016000205414905092915050565b6107ef6116ec565b80156108015750610800828261079b565b5b8015610812575061081182610711565b5b151561081d57600080fd5b3360006001840381548110151561083057fe5b906000526020600020906006020160010160006101000a81548173ffffffffffffffffffffffffffffffffffffffff021916908373ffffffffffffffffffffffffffffffffffffffff16021790555081600160003373ffffffffffffffffffffffffffffffffffffffff1673ffffffffffffffffffffffffffffffffffffffff168152602001908152602001600020819055503373ffffffffffffffffffffffffffffffffffffffff168173ffffffffffffffffffffffffffffffffffffffff16837f25f98e994d55b162f286b0496a33d7382a0b75056eb54b2b2b33a9000870284360405160405180910390a45050565b600081831415610b1e576109df848460038110151561093d57fe5b60200201518360038110151561094f57fe5b60200201518560036001870181151561096457fe5b0660038110151561097157fe5b602002015160036001860181151561098557fe5b0660038110151561099257fe5b6020020151866003600288018115156109a757fe5b066003811015156109b457fe5b60200201516003600287018115156109c857fe5b066003811015156109d557fe5b6020020151610776565b80610a7b5750610a7a84846003811015156109f657fe5b602002015183600381101515610a0857fe5b602002015185600360018701811515610a1d57fe5b06600381101515610a2a57fe5b602002015184600381101515610a3c57fe5b602002015186600360028801811515610a5157fe5b06600381101515610a5e57fe5b602002015185600381101515610a7057fe5b6020020151610776565b5b80610b175750610b168484600381101515610a9257fe5b602002015183600381101515610aa457fe5b60200201518585600381101515610ab757fe5b6020020151600360018601811515610acb57fe5b06600381101515610ad857fe5b60200201518686600381101515610aeb57fe5b6020020151600360028701811515610aff57fe5b06600381101515610b0c57fe5b6020020151610776565b5b9050610c52565b610bb38484600381101515610b2f57fe5b602002015183600381101515610b4157fe5b602002015185600360018701811515610b5657fe5b06600381101515610b6357fe5b602002015184600381101515610b7557fe5b602002015186600360028801811515610b8a57fe5b06600381101515610b9757fe5b602002015185600381101515610ba957fe5b6020020151610776565b80610c4f5750610c4e8484600381101515610bca57fe5b602002015183600381101515610bdc57fe5b60200201518585600381101515610bef57fe5b6020020151600360018601811515610c0357fe5b06600381101515610c1057fe5b60200201518686600381101515610c2357fe5b6020020151600360028701811515610c3757fe5b06600381101515610c4457fe5b6020020151610776565b5b90505b9392505050565b610c6161184d565b6000610c6b6116ec565b1515610c7657600080fd5b600060a0604051908101604052803373ffffffffffffffffffffffffffffffffffffffff168152602001600073ffffffffffffffffffffffffffffffffffffffff168152602001600260ff168152602001848152602001600015158152509080600181540180825580915050906001820390600052602060002090600602016000909192909190915060008201518160000160006101000a81548173ffffffffffffffffffffffffffffffffffffffff021916908373ffffffffffffffffffffffffffffffffffffffff16021790555060208201518160010160006101000a81548173ffffffffffffffffffffffffffffffffffffffff021916908373ffffffffffffffffffffffffffffffffffffffff16021790555060408201518160010160146101000a81548160ff021916908360ff160217905550606082015181600201906003610dc592919061187c565b5060808201518160050160006101000a81548160ff0219169083151502179055505050905080600160003373ffffffffffffffffffffffffffffffffffffffff1673ffffffffffffffffffffffffffffffffffffffff168152602001908152602001600020819055503373ffffffffffffffffffffffffffffffffffffffff167fcaf011c804279a3e62b4f0a4c189986f8e29df399e98c00c079454d6f7b48dbd826040518082815260200191505060405180910390a25050565b600081815481101515610e8f57fe5b90600052602060002090600602016000915090508060000160009054906101000a900473ffffffffffffffffffffffffffffffffffffffff16908060010160009054906101000a900473ffffffffffffffffffffffffffffffffffffffff16908060010160149054906101000a900460ff16908060050160009054906101000a900460ff16905084565b610f216118ca565b6000808510158015610f335750600385105b8015610f40575060008410155b8015610f4c5750600384105b8015610f5d5750610f5c8361157a565b5b1515610f6857600080fd5b600060018403815481101515610f7a57fe5b906000526020600020906006020160a060405190810160405290816000820160009054906101000a900473ffffffffffffffffffffffffffffffffffffffff1673ffffffffffffffffffffffffffffffffffffffff1673ffffffffffffffffffffffffffffffffffffffff1681526020016001820160009054906101000a900473ffffffffffffffffffffffffffffffffffffffff1673ffffffffffffffffffffffffffffffffffffffff1673ffffffffffffffffffffffffffffffffffffffff1681526020016001820160149054906101000a900460ff1660ff1660ff16815260200160028201600380602002604051908101604052809291906000905b828210156110f5578382016003806020026040519081016040528092919082600380156110e1576020028201916000905b82829054906101000a900460ff1660ff16815260200190600101906020826000010492830192600103820291508084116110aa5790505b505050505081526020019060010190611079565b5050505081526020016005820160009054906101000a900460ff1615151515815250509150816080015115151561112b57600080fd5b600082606001518660038110151561113f57fe5b60200201518560038110151561115157fe5b602002015160ff161415611573573373ffffffffffffffffffffffffffffffffffffffff16826000015173ffffffffffffffffffffffffffffffffffffffff1614156111e65760018260600151866003811015156111ab57fe5b6020020151856003811015156111bd57fe5b602002019060ff16908160ff16815250506002826040019060ff16908160ff1681525050611231565b60028260600151866003811015156111fa57fe5b60200201518560038110151561120c57fe5b602002019060ff16908160ff16815250506001826040019060ff16908160ff16815250505b61124082606001518686610922565b1561142f573373ffffffffffffffffffffffffffffffffffffffff16826000015173ffffffffffffffffffffffffffffffffffffffff1614156112895781602001519050611291565b816000015190505b600060016000846000015173ffffffffffffffffffffffffffffffffffffffff1673ffffffffffffffffffffffffffffffffffffffff16815260200190815260200160002081905550600060016000846020015173ffffffffffffffffffffffffffffffffffffffff1673ffffffffffffffffffffffffffffffffffffffff168152602001908152602001600020819055507f269bfc33858f3cc376e9f09e93dbef8f3f6557be2369b4306a5ae385c2d1cd4a8333838560600151604051808581526020018473ffffffffffffffffffffffffffffffffffffffff1673ffffffffffffffffffffffffffffffffffffffff1681526020018373ffffffffffffffffffffffffffffffffffffffff1673ffffffffffffffffffffffffffffffffffffffff1681526020018260036000925b818410156114075782846020020151600360200280838360005b838110156113f65780820151818401526020810190506113db565b5050505090500192600101926113c1565b9250505094505050505060405180910390a16001826080019015159081151581525050611467565b7fbc6bafe0c56f58b8150379d0161139d1456b1266f25d2245622e09c91a2f660d836040518082815260200191505060405180910390a15b8160006001850381548110151561147a57fe5b906000526020600020906006020160008201518160000160006101000a81548173ffffffffffffffffffffffffffffffffffffffff021916908373ffffffffffffffffffffffffffffffffffffffff16021790555060208201518160010160006101000a81548173ffffffffffffffffffffffffffffffffffffffff021916908373ffffffffffffffffffffffffffffffffffffffff16021790555060408201518160010160146101000a81548160ff021916908360ff16021790555060608201518160020190600361154e92919061187c565b5060808201518160050160006101000a81548160ff0219169083151502179055509050505b5050505050565b60003373ffffffffffffffffffffffffffffffffffffffff166000600184038154811015156115a557fe5b906000526020600020906006020160000160009054906101000a900473ffffffffffffffffffffffffffffffffffffffff1673ffffffffffffffffffffffffffffffffffffffff1614801561162d5750600160006001840381548110151561160957fe5b906000526020600020906006020160010160149054906101000a900460ff1660ff16145b806116e557503373ffffffffffffffffffffffffffffffffffffffff1660006001840381548110151561165c57fe5b906000526020600020906006020160010160009054906101000a900473ffffffffffffffffffffffffffffffffffffffff1673ffffffffffffffffffffffffffffffffffffffff161480156116e4575060026000600184038154811015156116c057fe5b906000526020600020906006020160010160149054906101000a900460ff1660ff16145b5b9050919050565b600080600160003373ffffffffffffffffffffffffffffffffffffffff1673ffffffffffffffffffffffffffffffffffffffff1681526020019081526020016000205414905090565b60008080549050905090565b60008060008060008560006001880381548110151561175c57fe5b906000526020600020906006020160000160009054906101000a900473ffffffffffffffffffffffffffffffffffffffff166000600189038154811015156117a057fe5b906000526020600020906006020160010160009054906101000a900473ffffffffffffffffffffffffffffffffffffffff16600060018a038154811015156117e457fe5b906000526020600020906006020160050160009054906101000a900460ff16600060018b0381548110151561181557fe5b906000526020600020906006020160010160149054906101000a900460ff168060ff1690509450945094509450945091939590929450565b610120604051908101604052806003905b611866611932565b81526020019060019003908161185e5790505090565b82600381019282156118b9579160200282015b828111156118b8578251829060036118a8929190611955565b509160200191906001019061188f565b5b5090506118c691906119ef565b5090565b6101a060405190810160405280600073ffffffffffffffffffffffffffffffffffffffff168152602001600073ffffffffffffffffffffffffffffffffffffffff168152602001600060ff168152602001611923611a1b565b81526020016000151581525090565b606060405190810160405280600390602082028038833980820191505090505090565b826003601f016020900481019282156119de5791602002820160005b838211156119af57835183826101000a81548160ff021916908360ff1602179055509260200192600101602081600001049283019260010302611971565b80156119dc5782816101000a81549060ff02191690556001016020816000010492830192600103026119af565b505b5090506119eb9190611a4a565b5090565b611a1891905b80821115611a145760008181611a0b9190611a7a565b506001016119f5565b5090565b90565b610120604051908101604052806003905b611a34611932565b815260200190600190039081611a2c5790505090565b611a7791905b80821115611a7357600081816101000a81549060ff021916905550600101611a50565b5090565b90565b50600090555600a165627a7a72305820deafac88052d6c369667d844502284412ce1cf75b5d33131b49a56f49d694ed50029",
  "source": "pragma solidity ^0.4.24;\n\ncontract Tictac {\n\t\n    event newProposedMatch(uint index, address indexed firstPlayer);\n    event matchJoined(uint indexed index, address indexed proposer, address indexed opponent);\n    event matchEnded(uint index, address winner, address loser, uint8[3][3] endTableStatus);\n    event nextMove(uint index);\n\t\n\tstruct Match{\n    \taddress playerOne;\n    \taddress playerTwo;\n    \tuint8 turno;\n        uint8[3][3] table;\n        bool isEnded;\n\t}\n\n    Match[] public runningMatches;\n\n\t/* Questi mapping conterranno l'indice+1 della partita in corso di \"address\"\n\t * E' sommato ad uno così da poter distinguere il return \"0\" quando nessun\n\t * valore è stato mappato.\n\t */\n\tmapping(address => uint) public matchIndexOfPlayers;\n\t\n\tfunction createMatch() public {\n\t\trequire(senderIsNotPlaying());\n\t    uint8[3][3] memory emptyTable;\n\t    uint index = runningMatches.push(Match(msg.sender, 0x0, 2, emptyTable, false));\n\t    matchIndexOfPlayers[msg.sender] = index;\n\t    emit newProposedMatch(index, msg.sender);\n\t}\n\n\t/* Metodo utilizzato per joinare una partita proposta.\n\t */\n\tfunction joinMatch(uint _id, address _proposer) public {\n\t\t// Controlliamo che chi vuole partecipare non sta già svolgendo o proponendo una partita\n\t\t// Controlliamo che la partita sia ancora effettivamente valida e disponibile\n\t\trequire(senderIsNotPlaying() && isValidMatch(_id, _proposer) && isAvailableMatch(_id));\n\t\t// Giocatore 2 aggiunto alla partita\n\t\trunningMatches[_id - 1].playerTwo = msg.sender;\n\t    matchIndexOfPlayers[msg.sender] = _id;\n\t\t// Invio l'evento per aggiornare\n\t    emit matchJoined(_id, _proposer, msg.sender);\n\t}\n\n\tfunction play(uint _x, uint _y, uint _index) public{\n\t\trequire(_x>=0 && _x<3 && _y>=0 && _y<3 && isHisTurn(_index));\n\t\tMatch memory playingMatch = runningMatches[_index-1];\n\t\trequire(!playingMatch.isEnded);\n\t\tif(playingMatch.table[_x][_y] == 0){\n\t\t\tif(playingMatch.playerOne == msg.sender){\n\t\t\t\tplayingMatch.table[_x][_y] = 1;\n\t\t\t\tplayingMatch.turno = 2;\n\t\t\t} else{\n\t\t\t\tplayingMatch.table[_x][_y] = 2;\n\t\t\t\tplayingMatch.turno = 1;\n\t\t\t}\n\n\t\t\tif(hasWin(playingMatch.table, _x, _y)){\n\t\t\t\taddress loser;\n\t\t\t\tif(playingMatch.playerOne == msg.sender){\n\t\t\t\t\tloser = playingMatch.playerTwo;\n\t\t\t\t}else{\n\t\t\t\t\tloser = playingMatch.playerOne;\n\t\t\t\t}\n\t\t\t\tmatchIndexOfPlayers[playingMatch.playerOne] = 0;\n\t\t\t\tmatchIndexOfPlayers[playingMatch.playerTwo] = 0;\n\t\t\t\temit matchEnded(_index, msg.sender, loser, playingMatch.table);\n\t\t\t\tplayingMatch.isEnded = true;\n\t\t\t}else{\n\t\t\t\temit nextMove(_index);\n\t\t\t}\n\t\t\trunningMatches[_index-1] = playingMatch;\n\t\t}\n\t}\n\n\tfunction getRunningMatchesCount() public view returns(uint){\n\t\treturn runningMatches.length;\n\t}\n\n\tfunction getRunningMatchAtIndex(uint index) public view returns(uint, address, address, bool, uint) {\n    \treturn (index, runningMatches[index-1].playerOne, runningMatches[index-1].playerTwo, runningMatches[index-1].isEnded, runningMatches[index-1].turno);\n\t}\n\n\tfunction getRunningMatchBoardAtIndex(uint index) public view returns(uint8[3][3]) {\n    \treturn runningMatches[index-1].table;\n\t}\n\n\tfunction senderIsNotPlaying() view public returns(bool){\n\t\treturn (matchIndexOfPlayers[msg.sender] == 0);\n\t}\n\n\tfunction isValidMatch(uint _index, address _proposer) view public returns(bool){\n\t\treturn (matchIndexOfPlayers[_proposer] == _index);\n\t}\n\n\tfunction isAvailableMatch(uint _index) view public returns(bool){\n\t\treturn (runningMatches[_index - 1].playerTwo == 0x0);\n\t}\n\n\tfunction isHisTurn(uint _index) view public returns(bool){\n\t\treturn ((runningMatches[_index - 1].playerOne == msg.sender && runningMatches[_index - 1].turno == 1) || (runningMatches[_index - 1].playerTwo == msg.sender && runningMatches[_index - 1].turno == 2));\n\t}\n\n\tfunction hasWin(uint8[3][3] _table, uint _modifiedRow, uint _modifiedColumn) pure public returns(bool){\n\t\tif(_modifiedRow == _modifiedColumn){\n\t\t\treturn (\n\t\t\t\t\ttriEqual(_table[_modifiedRow][_modifiedColumn], _table[(_modifiedRow + 1) % 3][(_modifiedColumn + 1) % 3], _table[(_modifiedRow + 2) % 3][(_modifiedColumn + 2) % 3]) ||\n\t\t\t\t\ttriEqual(_table[_modifiedRow][_modifiedColumn], _table[(_modifiedRow + 1) % 3][_modifiedColumn], _table[(_modifiedRow + 2) % 3][_modifiedColumn]) ||\n\t\t\t\t\ttriEqual(_table[_modifiedRow][_modifiedColumn], _table[_modifiedRow][(_modifiedColumn + 1) % 3], _table[_modifiedRow][(_modifiedColumn + 2) % 3])\n\t\t\t\t);\n\t\t} else {\n\t\t\treturn (\n\t\t\t\t\ttriEqual(_table[_modifiedRow][_modifiedColumn], _table[(_modifiedRow + 1) % 3][_modifiedColumn], _table[(_modifiedRow + 2) % 3][_modifiedColumn]) ||\n\t\t\t\t\ttriEqual(_table[_modifiedRow][_modifiedColumn], _table[_modifiedRow][(_modifiedColumn + 1) % 3], _table[_modifiedRow][(_modifiedColumn + 2) % 3])\n\t\t\t\t);\n\t\t}\n\t}\n\n\tfunction triEqual(uint8 _a, uint8 _b, uint8 _c) pure public returns (bool){\n\t\treturn ((_a == _b) && (_a == _c));\n\t}\n}",
  "sourcePath": "/Users/luca/Desktop/tirocinio/tictactoe/contracts/Tictac.sol",
  "compiler": {
    "name": "solc",
    "version": "0.4.24+commit.e67f0147.Emscripten.clang"
  },
  "schemaVersion": "2.0.0",
  "updatedAt": "2018-07-06T08:40:50.317Z"
}