{
  "contractName": "Tictac",
  "abi": [
    {
      "constant": true,
      "inputs": [
        {
          "name": "",
          "type": "address"
        }
      ],
      "name": "matchIndexOfPlayers",
      "outputs": [
        {
          "name": "",
          "type": "uint256"
        }
      ],
      "payable": false,
      "stateMutability": "view",
      "type": "function"
    },
    {
      "constant": false,
      "inputs": [],
      "name": "renounceOwnership",
      "outputs": [],
      "payable": false,
      "stateMutability": "nonpayable",
      "type": "function"
    },
    {
      "constant": true,
      "inputs": [],
      "name": "owner",
      "outputs": [
        {
          "name": "",
          "type": "address"
        }
      ],
      "payable": false,
      "stateMutability": "view",
      "type": "function"
    },
    {
      "constant": true,
      "inputs": [
        {
          "name": "",
          "type": "uint256"
        }
      ],
      "name": "pendingMatches",
      "outputs": [
        {
          "name": "playerOne",
          "type": "address"
        },
        {
          "name": "playerTwo",
          "type": "address"
        },
        {
          "name": "turno",
          "type": "uint8"
        }
      ],
      "payable": false,
      "stateMutability": "view",
      "type": "function"
    },
    {
      "constant": true,
      "inputs": [
        {
          "name": "",
          "type": "uint256"
        }
      ],
      "name": "runningMatches",
      "outputs": [
        {
          "name": "playerOne",
          "type": "address"
        },
        {
          "name": "playerTwo",
          "type": "address"
        },
        {
          "name": "turno",
          "type": "uint8"
        }
      ],
      "payable": false,
      "stateMutability": "view",
      "type": "function"
    },
    {
      "constant": true,
      "inputs": [
        {
          "name": "",
          "type": "address"
        }
      ],
      "name": "matchIndexOfProposer",
      "outputs": [
        {
          "name": "",
          "type": "uint256"
        }
      ],
      "payable": false,
      "stateMutability": "view",
      "type": "function"
    },
    {
      "constant": false,
      "inputs": [
        {
          "name": "_newOwner",
          "type": "address"
        }
      ],
      "name": "transferOwnership",
      "outputs": [],
      "payable": false,
      "stateMutability": "nonpayable",
      "type": "function"
    },
    {
      "anonymous": false,
      "inputs": [
        {
          "indexed": false,
          "name": "index",
          "type": "uint256"
        },
        {
          "indexed": true,
          "name": "firstPlayer",
          "type": "address"
        }
      ],
      "name": "newProposedMatch",
      "type": "event"
    },
    {
      "anonymous": false,
      "inputs": [
        {
          "indexed": true,
          "name": "index",
          "type": "uint256"
        },
        {
          "indexed": true,
          "name": "proposer",
          "type": "address"
        },
        {
          "indexed": true,
          "name": "opponent",
          "type": "address"
        }
      ],
      "name": "matchJoined",
      "type": "event"
    },
    {
      "anonymous": false,
      "inputs": [
        {
          "indexed": false,
          "name": "index",
          "type": "uint256"
        },
        {
          "indexed": false,
          "name": "winner",
          "type": "address"
        },
        {
          "indexed": false,
          "name": "loser",
          "type": "address"
        },
        {
          "indexed": false,
          "name": "endTableStatus",
          "type": "uint8[3][3]"
        }
      ],
      "name": "matchEnded",
      "type": "event"
    },
    {
      "anonymous": false,
      "inputs": [
        {
          "indexed": false,
          "name": "index",
          "type": "uint256"
        }
      ],
      "name": "nextMove",
      "type": "event"
    },
    {
      "anonymous": false,
      "inputs": [
        {
          "indexed": true,
          "name": "previousOwner",
          "type": "address"
        }
      ],
      "name": "OwnershipRenounced",
      "type": "event"
    },
    {
      "anonymous": false,
      "inputs": [
        {
          "indexed": true,
          "name": "previousOwner",
          "type": "address"
        },
        {
          "indexed": true,
          "name": "newOwner",
          "type": "address"
        }
      ],
      "name": "OwnershipTransferred",
      "type": "event"
    },
    {
      "constant": false,
      "inputs": [],
      "name": "createMatch",
      "outputs": [],
      "payable": false,
      "stateMutability": "nonpayable",
      "type": "function"
    },
    {
      "constant": false,
      "inputs": [
        {
          "name": "_id",
          "type": "uint256"
        },
        {
          "name": "_proposer",
          "type": "address"
        }
      ],
      "name": "joinMatch",
      "outputs": [],
      "payable": false,
      "stateMutability": "nonpayable",
      "type": "function"
    },
    {
      "constant": false,
      "inputs": [
        {
          "name": "_x",
          "type": "uint256"
        },
        {
          "name": "_y",
          "type": "uint256"
        },
        {
          "name": "_index",
          "type": "uint256"
        }
      ],
      "name": "play",
      "outputs": [],
      "payable": false,
      "stateMutability": "nonpayable",
      "type": "function"
    },
    {
      "constant": true,
      "inputs": [],
      "name": "getPendingMatchesCount",
      "outputs": [
        {
          "name": "",
          "type": "uint256"
        }
      ],
      "payable": false,
      "stateMutability": "view",
      "type": "function"
    },
    {
      "constant": true,
      "inputs": [
        {
          "name": "index",
          "type": "uint256"
        }
      ],
      "name": "getPendingMatchAtIndex",
      "outputs": [
        {
          "name": "",
          "type": "uint256"
        },
        {
          "name": "",
          "type": "address"
        }
      ],
      "payable": false,
      "stateMutability": "view",
      "type": "function"
    },
    {
      "constant": true,
      "inputs": [],
      "name": "senderHasNoCurrentGame",
      "outputs": [
        {
          "name": "",
          "type": "bool"
        }
      ],
      "payable": false,
      "stateMutability": "view",
      "type": "function"
    },
    {
      "constant": true,
      "inputs": [],
      "name": "senderIsNotProposing",
      "outputs": [
        {
          "name": "",
          "type": "bool"
        }
      ],
      "payable": false,
      "stateMutability": "view",
      "type": "function"
    },
    {
      "constant": true,
      "inputs": [],
      "name": "senderIsNotPlaying",
      "outputs": [
        {
          "name": "",
          "type": "bool"
        }
      ],
      "payable": false,
      "stateMutability": "view",
      "type": "function"
    },
    {
      "constant": true,
      "inputs": [
        {
          "name": "_index",
          "type": "uint256"
        },
        {
          "name": "_proposer",
          "type": "address"
        }
      ],
      "name": "isValidMatch",
      "outputs": [
        {
          "name": "",
          "type": "bool"
        }
      ],
      "payable": false,
      "stateMutability": "view",
      "type": "function"
    },
    {
      "constant": true,
      "inputs": [
        {
          "name": "_index",
          "type": "uint256"
        }
      ],
      "name": "isHisTurn",
      "outputs": [
        {
          "name": "",
          "type": "bool"
        }
      ],
      "payable": false,
      "stateMutability": "view",
      "type": "function"
    },
    {
      "constant": true,
      "inputs": [
        {
          "name": "_table",
          "type": "uint8[3][3]"
        },
        {
          "name": "_modifiedRow",
          "type": "uint256"
        },
        {
          "name": "_modifiedColumn",
          "type": "uint256"
        }
      ],
      "name": "hasWin",
      "outputs": [
        {
          "name": "",
          "type": "bool"
        }
      ],
      "payable": false,
      "stateMutability": "pure",
      "type": "function"
    },
    {
      "constant": true,
      "inputs": [
        {
          "name": "_a",
          "type": "uint8"
        },
        {
          "name": "_b",
          "type": "uint8"
        },
        {
          "name": "_c",
          "type": "uint8"
        }
      ],
      "name": "triEqual",
      "outputs": [
        {
          "name": "",
          "type": "bool"
        }
      ],
      "payable": false,
      "stateMutability": "pure",
      "type": "function"
    }
  ],
  "bytecode": "0x6080604052336000806101000a81548173ffffffffffffffffffffffffffffffffffffffff021916908373ffffffffffffffffffffffffffffffffffffffff160217905550612070806100536000396000f300608060405260043610610107576000357c0100000000000000000000000000000000000000000000000000000000900463ffffffff1680631b7d41841461010c5780632c9a50e9146101375780634ee58c1214610166578063680c9737146101bd578063715018a61461021f578063760e8b37146102365780637c7902bf146102655780638da5cb5b146102ca57806395e5a80714610321578063967ce32d146103955780639b1c90ef146103e25780639bc0f9661461048f578063a0cc641a14610546578063a4627c4e1461055d578063ab2e5a1f1461060a578063ba1312531461064b578063bc8754a4146106a2578063d7e01148146106e7578063f2fde38b14610716575b600080fd5b34801561011857600080fd5b50610121610759565b6040518082815260200191505060405180910390f35b34801561014357600080fd5b5061014c610766565b604051808215151515815260200191505060405180910390f35b34801561017257600080fd5b506101a7600480360381019080803573ffffffffffffffffffffffffffffffffffffffff169060200190929190505050610785565b6040518082815260200191505060405180910390f35b3480156101c957600080fd5b50610205600480360381019080803560ff169060200190929190803560ff169060200190929190803560ff16906020019092919050505061079d565b604051808215151515815260200191505060405180910390f35b34801561022b57600080fd5b506102346107c2565b005b34801561024257600080fd5b5061024b6108c4565b604051808215151515815260200191505060405180910390f35b34801561027157600080fd5b506102b060048036038101908080359060200190929190803573ffffffffffffffffffffffffffffffffffffffff16906020019092919050505061090d565b604051808215151515815260200191505060405180910390f35b3480156102d657600080fd5b506102df610959565b604051808273ffffffffffffffffffffffffffffffffffffffff1673ffffffffffffffffffffffffffffffffffffffff16815260200191505060405180910390f35b34801561032d57600080fd5b5061034c6004803603810190808035906020019092919050505061097e565b604051808381526020018273ffffffffffffffffffffffffffffffffffffffff1673ffffffffffffffffffffffffffffffffffffffff1681526020019250505060405180910390f35b3480156103a157600080fd5b506103e060048036038101908080359060200190929190803573ffffffffffffffffffffffffffffffffffffffff1690602001909291905050506109ce565b005b3480156103ee57600080fd5b5061040d60048036038101908080359060200190929190505050610e86565b604051808473ffffffffffffffffffffffffffffffffffffffff1673ffffffffffffffffffffffffffffffffffffffff1681526020018373ffffffffffffffffffffffffffffffffffffffff1673ffffffffffffffffffffffffffffffffffffffff1681526020018260ff1660ff168152602001935050505060405180910390f35b34801561049b57600080fd5b5061052c600480360381019080806101200190600380602002604051908101604052809291906000905b828210156105075783826060020160038060200260405190810160405280929190826003602002808284378201915050505050815260200190600101906104c5565b5050505091929192908035906020019092919080359060200190929190505050610f0c565b604051808215151515815260200191505060405180910390f35b34801561055257600080fd5b5061055b611243565b005b34801561056957600080fd5b5061058860048036038101908080359060200190929190505050611441565b604051808473ffffffffffffffffffffffffffffffffffffffff1673ffffffffffffffffffffffffffffffffffffffff1681526020018373ffffffffffffffffffffffffffffffffffffffff1673ffffffffffffffffffffffffffffffffffffffff1681526020018260ff1660ff168152602001935050505060405180910390f35b34801561061657600080fd5b506106496004803603810190808035906020019092919080359060200190929190803590602001909291905050506114c7565b005b34801561065757600080fd5b5061068c600480360381019080803573ffffffffffffffffffffffffffffffffffffffff169060200190929190505050611ab3565b6040518082815260200191505060405180910390f35b3480156106ae57600080fd5b506106cd60048036038101908080359060200190929190505050611acb565b604051808215151515815260200191505060405180910390f35b3480156106f357600080fd5b506106fc611c3c565b604051808215151515815260200191505060405180910390f35b34801561072257600080fd5b50610757600480360381019080803573ffffffffffffffffffffffffffffffffffffffff169060200190929190505050611c85565b005b6000600180549050905090565b60006107706108c4565b8015610780575061077f611c3c565b5b905090565b60046020528060005260406000206000915090505481565b60008260ff168460ff161480156107b957508160ff168460ff16145b90509392505050565b6000809054906101000a900473ffffffffffffffffffffffffffffffffffffffff1673ffffffffffffffffffffffffffffffffffffffff163373ffffffffffffffffffffffffffffffffffffffff1614151561081d57600080fd5b6000809054906101000a900473ffffffffffffffffffffffffffffffffffffffff1673ffffffffffffffffffffffffffffffffffffffff167ff8df31144d9c2f0f6b59d69b8b98abd5459d07f2742c4df920b25aae33c6482060405160405180910390a260008060006101000a81548173ffffffffffffffffffffffffffffffffffffffff021916908373ffffffffffffffffffffffffffffffffffffffff160217905550565b600080600360003373ffffffffffffffffffffffffffffffffffffffff1673ffffffffffffffffffffffffffffffffffffffff1681526020019081526020016000205414905090565b600082600360008473ffffffffffffffffffffffffffffffffffffffff1673ffffffffffffffffffffffffffffffffffffffff1681526020019081526020016000205414905092915050565b6000809054906101000a900473ffffffffffffffffffffffffffffffffffffffff1681565b60008082600180850381548110151561099357fe5b906000526020600020906005020160000160009054906101000a900473ffffffffffffffffffffffffffffffffffffffff1691509150915091565b6109d6611de6565b60006109e0610766565b80156109f257506109f1848461090d565b5b15156109fd57600080fd5b6000600360008573ffffffffffffffffffffffffffffffffffffffff1673ffffffffffffffffffffffffffffffffffffffff168152602001908152602001600020819055506001808503815481101515610a5357fe5b9060005260206000209060050201608060405190810160405290816000820160009054906101000a900473ffffffffffffffffffffffffffffffffffffffff1673ffffffffffffffffffffffffffffffffffffffff1673ffffffffffffffffffffffffffffffffffffffff1681526020016001820160009054906101000a900473ffffffffffffffffffffffffffffffffffffffff1673ffffffffffffffffffffffffffffffffffffffff1673ffffffffffffffffffffffffffffffffffffffff1681526020016001820160149054906101000a900460ff1660ff1660ff16815260200160028201600380602002604051908101604052809291906000905b82821015610bce57838201600380602002604051908101604052809291908260038015610bba576020028201916000905b82829054906101000a900460ff1660ff1681526020019060010190602082600001049283019260010382029150808411610b835790505b505050505081526020019060010190610b52565b505050508152505091506001808503815481101515610be957fe5b9060005260206000209060050201600080820160006101000a81549073ffffffffffffffffffffffffffffffffffffffff02191690556001820160006101000a81549073ffffffffffffffffffffffffffffffffffffffff02191690556001820160146101000a81549060ff0219169055600282016000610c6a9190611e45565b505033826020019073ffffffffffffffffffffffffffffffffffffffff16908173ffffffffffffffffffffffffffffffffffffffff16815250506002829080600181540180825580915050906001820390600052602060002090600502016000909192909190915060008201518160000160006101000a81548173ffffffffffffffffffffffffffffffffffffffff021916908373ffffffffffffffffffffffffffffffffffffffff16021790555060208201518160010160006101000a81548173ffffffffffffffffffffffffffffffffffffffff021916908373ffffffffffffffffffffffffffffffffffffffff16021790555060408201518160010160146101000a81548160ff021916908360ff160217905550606082015181600201906003610d98929190611e78565b505050905080600460008573ffffffffffffffffffffffffffffffffffffffff1673ffffffffffffffffffffffffffffffffffffffff1681526020019081526020016000208190555080600460003373ffffffffffffffffffffffffffffffffffffffff1673ffffffffffffffffffffffffffffffffffffffff168152602001908152602001600020819055503373ffffffffffffffffffffffffffffffffffffffff168373ffffffffffffffffffffffffffffffffffffffff16857f25f98e994d55b162f286b0496a33d7382a0b75056eb54b2b2b33a9000870284360405160405180910390a450505050565b600181815481101515610e9557fe5b90600052602060002090600502016000915090508060000160009054906101000a900473ffffffffffffffffffffffffffffffffffffffff16908060010160009054906101000a900473ffffffffffffffffffffffffffffffffffffffff16908060010160149054906101000a900460ff16905083565b60008183141561110857610fc98484600381101515610f2757fe5b602002015183600381101515610f3957fe5b602002015185600360018701811515610f4e57fe5b06600381101515610f5b57fe5b6020020151600360018601811515610f6f57fe5b06600381101515610f7c57fe5b602002015186600360028801811515610f9157fe5b06600381101515610f9e57fe5b6020020151600360028701811515610fb257fe5b06600381101515610fbf57fe5b602002015161079d565b8061106557506110648484600381101515610fe057fe5b602002015183600381101515610ff257fe5b60200201518560036001870181151561100757fe5b0660038110151561101457fe5b60200201518460038110151561102657fe5b60200201518660036002880181151561103b57fe5b0660038110151561104857fe5b60200201518560038110151561105a57fe5b602002015161079d565b5b806111015750611100848460038110151561107c57fe5b60200201518360038110151561108e57fe5b602002015185856003811015156110a157fe5b60200201516003600186018115156110b557fe5b066003811015156110c257fe5b602002015186866003811015156110d557fe5b60200201516003600287018115156110e957fe5b066003811015156110f657fe5b602002015161079d565b5b905061123c565b61119d848460038110151561111957fe5b60200201518360038110151561112b57fe5b60200201518560036001870181151561114057fe5b0660038110151561114d57fe5b60200201518460038110151561115f57fe5b60200201518660036002880181151561117457fe5b0660038110151561118157fe5b60200201518560038110151561119357fe5b602002015161079d565b80611239575061123884846003811015156111b457fe5b6020020151836003811015156111c657fe5b602002015185856003811015156111d957fe5b60200201516003600186018115156111ed57fe5b066003811015156111fa57fe5b6020020151868660038110151561120d57fe5b602002015160036002870181151561122157fe5b0660038110151561122e57fe5b602002015161079d565b5b90505b9392505050565b61124b611ec6565b6000611255610766565b151561126057600080fd5b60016080604051908101604052803373ffffffffffffffffffffffffffffffffffffffff168152602001600073ffffffffffffffffffffffffffffffffffffffff168152602001600260ff168152602001848152509080600181540180825580915050906001820390600052602060002090600502016000909192909190915060008201518160000160006101000a81548173ffffffffffffffffffffffffffffffffffffffff021916908373ffffffffffffffffffffffffffffffffffffffff16021790555060208201518160010160006101000a81548173ffffffffffffffffffffffffffffffffffffffff021916908373ffffffffffffffffffffffffffffffffffffffff16021790555060408201518160010160146101000a81548160ff021916908360ff1602179055506060820151816002019060036113a6929190611e78565b505050905080600360003373ffffffffffffffffffffffffffffffffffffffff1673ffffffffffffffffffffffffffffffffffffffff168152602001908152602001600020819055503373ffffffffffffffffffffffffffffffffffffffff167fcaf011c804279a3e62b4f0a4c189986f8e29df399e98c00c079454d6f7b48dbd826040518082815260200191505060405180910390a25050565b60028181548110151561145057fe5b90600052602060002090600502016000915090508060000160009054906101000a900473ffffffffffffffffffffffffffffffffffffffff16908060010160009054906101000a900473ffffffffffffffffffffffffffffffffffffffff16908060010160149054906101000a900460ff16905083565b6114cf611de6565b60008085101580156114e15750600385105b80156114ee575060008410155b80156114fa5750600384105b801561150b575061150a83611acb565b5b151561151657600080fd5b60028381548110151561152557fe5b9060005260206000209060050201608060405190810160405290816000820160009054906101000a900473ffffffffffffffffffffffffffffffffffffffff1673ffffffffffffffffffffffffffffffffffffffff1673ffffffffffffffffffffffffffffffffffffffff1681526020016001820160009054906101000a900473ffffffffffffffffffffffffffffffffffffffff1673ffffffffffffffffffffffffffffffffffffffff1673ffffffffffffffffffffffffffffffffffffffff1681526020016001820160149054906101000a900460ff1660ff1660ff16815260200160028201600380602002604051908101604052809291906000905b828210156116a05783820160038060200260405190810160405280929190826003801561168c576020028201916000905b82829054906101000a900460ff1660ff16815260200190600101906020826000010492830192600103820291508084116116555790505b505050505081526020019060010190611624565b5050505081525050915060008260600151866003811015156116be57fe5b6020020151856003811015156116d057fe5b602002015160ff161415611aac573373ffffffffffffffffffffffffffffffffffffffff16826000015173ffffffffffffffffffffffffffffffffffffffff16141561175257600182606001518660038110151561172a57fe5b60200201518560038110151561173c57fe5b602002019060ff16908160ff168152505061178a565b600282606001518660038110151561176657fe5b60200201518560038110151561177857fe5b602002019060ff16908160ff16815250505b61179982606001518686610f0c565b1561194f576001826040015160ff1614156117ba57816020015190506117c2565b816000015190505b6002838154811015156117d157fe5b9060005260206000209060050201600080820160006101000a81549073ffffffffffffffffffffffffffffffffffffffff02191690556001820160006101000a81549073ffffffffffffffffffffffffffffffffffffffff02191690556001820160146101000a81549060ff02191690556002820160006118529190611e45565b50507f269bfc33858f3cc376e9f09e93dbef8f3f6557be2369b4306a5ae385c2d1cd4a8333838560600151604051808581526020018473ffffffffffffffffffffffffffffffffffffffff1673ffffffffffffffffffffffffffffffffffffffff1681526020018373ffffffffffffffffffffffffffffffffffffffff1673ffffffffffffffffffffffffffffffffffffffff1681526020018260036000925b818410156119385782846020020151600360200280838360005b8381101561192757808201518184015260208101905061190c565b5050505090500192600101926118f2565b9250505094505050505060405180910390a1611aab565b6001826040015160ff161415611977576002826040019060ff16908160ff168152505061198b565b6001826040019060ff16908160ff16815250505b8160028481548110151561199b57fe5b906000526020600020906005020160008201518160000160006101000a81548173ffffffffffffffffffffffffffffffffffffffff021916908373ffffffffffffffffffffffffffffffffffffffff16021790555060208201518160010160006101000a81548173ffffffffffffffffffffffffffffffffffffffff021916908373ffffffffffffffffffffffffffffffffffffffff16021790555060408201518160010160146101000a81548160ff021916908360ff160217905550606082015181600201906003611a6f929190611e78565b509050507fbc6bafe0c56f58b8150379d0161139d1456b1266f25d2245622e09c91a2f660d836040518082815260200191505060405180910390a15b5b5050505050565b60036020528060005260406000206000915090505481565b60003373ffffffffffffffffffffffffffffffffffffffff16600260018403815481101515611af657fe5b906000526020600020906005020160000160009054906101000a900473ffffffffffffffffffffffffffffffffffffffff1673ffffffffffffffffffffffffffffffffffffffff16148015611b7e57506001600260018403815481101515611b5a57fe5b906000526020600020906005020160010160149054906101000a900460ff1660ff16145b80611c3557503373ffffffffffffffffffffffffffffffffffffffff16600260018403815481101515611bad57fe5b906000526020600020906005020160010160009054906101000a900473ffffffffffffffffffffffffffffffffffffffff1673ffffffffffffffffffffffffffffffffffffffff16148015611c34575060028060018403815481101515611c1057fe5b906000526020600020906005020160010160149054906101000a900460ff1660ff16145b5b9050919050565b600080600460003373ffffffffffffffffffffffffffffffffffffffff1673ffffffffffffffffffffffffffffffffffffffff1681526020019081526020016000205414905090565b6000809054906101000a900473ffffffffffffffffffffffffffffffffffffffff1673ffffffffffffffffffffffffffffffffffffffff163373ffffffffffffffffffffffffffffffffffffffff16141515611ce057600080fd5b611ce981611cec565b50565b600073ffffffffffffffffffffffffffffffffffffffff168173ffffffffffffffffffffffffffffffffffffffff1614151515611d2857600080fd5b8073ffffffffffffffffffffffffffffffffffffffff166000809054906101000a900473ffffffffffffffffffffffffffffffffffffffff1673ffffffffffffffffffffffffffffffffffffffff167f8be0079c531659141344cd1fd0a4f28419497f9722a3daafe3b4186f6b6457e060405160405180910390a3806000806101000a81548173ffffffffffffffffffffffffffffffffffffffff021916908373ffffffffffffffffffffffffffffffffffffffff16021790555050565b61018060405190810160405280600073ffffffffffffffffffffffffffffffffffffffff168152602001600073ffffffffffffffffffffffffffffffffffffffff168152602001600060ff168152602001611e3f611ef5565b81525090565b5060008181611e549190611f24565b5060010160008181611e669190611f24565b506001016000611e769190611f24565b565b8260038101928215611eb5579160200282015b82811115611eb457825182906003611ea4929190611f2b565b5091602001919060010190611e8b565b5b509050611ec29190611fc5565b5090565b610120604051908101604052806003905b611edf611ff1565b815260200190600190039081611ed75790505090565b610120604051908101604052806003905b611f0e611ff1565b815260200190600190039081611f065790505090565b5060009055565b826003601f01602090048101928215611fb45791602002820160005b83821115611f8557835183826101000a81548160ff021916908360ff1602179055509260200192600101602081600001049283019260010302611f47565b8015611fb25782816101000a81549060ff0219169055600101602081600001049283019260010302611f85565b505b509050611fc19190612014565b5090565b611fee91905b80821115611fea5760008181611fe19190611f24565b50600101611fcb565b5090565b90565b606060405190810160405280600390602082028038833980820191505090505090565b61204191905b8082111561203d57600081816101000a81549060ff02191690555060010161201a565b5090565b905600a165627a7a72305820647dd53113f1b92a044298602c00e41d34620284d654a62b2998930970c10a250029",
  "source": "pragma solidity ^0.4.24;\n\nimport \"./Ownable.sol\";\n\ncontract Tictac is Ownable{\n\t\n    event newProposedMatch(uint index, address indexed firstPlayer);\n    event matchJoined(uint indexed index, address indexed proposer, address indexed opponent);\n    event matchEnded(uint index, address winner, address loser, uint8[3][3] endTableStatus);\n    event nextMove(uint index);\n\t\n\tstruct Match{\n    \taddress playerOne;\n    \taddress playerTwo;\n    \tuint8 turno;\n        uint8[3][3] table;\n\t}\n\n\tMatch[] public pendingMatches;\n\tMatch[] public runningMatches;\n\n\t/* Questi mapping conterranno l'indice+1 della partita in corso di \"address\"\n\t * E' sommato ad uno cos da poter distinguere il return \"0\" quando nessun\n\t * valore  stato mappato.\n\t */\n\tmapping(address => uint) public matchIndexOfProposer;\n\tmapping(address => uint) public matchIndexOfPlayers;\n\t\n\tfunction createMatch() public {\n\t\trequire(senderHasNoCurrentGame());\n\t    uint8[3][3] memory emptyTable;\n\t    uint index = pendingMatches.push(Match(msg.sender, 0x0, 2, emptyTable));\n\t    matchIndexOfProposer[msg.sender] = index;\n\t    emit newProposedMatch(index, msg.sender);\n\t}\n\n\tfunction joinMatch(uint _id, address _proposer) public {\n\t\trequire(senderHasNoCurrentGame() && isValidMatch(_id, _proposer));\n\t\tmatchIndexOfProposer[_proposer] = 0;\n\t\tMatch memory currentMatch = pendingMatches[_id - 1];\n\t    delete pendingMatches[_id - 1]; //TODO: I should avoid leaving gaps\n\t\tcurrentMatch.playerTwo = msg.sender;\n\t\tuint newIndex = runningMatches.push(currentMatch);\n\t\tmatchIndexOfPlayers[_proposer] = newIndex;\n\t    matchIndexOfPlayers[msg.sender] = newIndex;\n\t    emit matchJoined(_id, _proposer, msg.sender);\n\t}\n\n\tfunction play(uint _x, uint _y, uint _index) public{\n\t\trequire(_x>=0 && _x<3 && _y>=0 && _y<3 && isHisTurn(_index));\n\t\tMatch memory playingMatch = runningMatches[_index];\n\t\tif(playingMatch.table[_x][_y] == 0){\n\t\t\tif(playingMatch.playerOne == msg.sender){\n\t\t\t\tplayingMatch.table[_x][_y] = 1;\n\t\t\t} else{\n\t\t\t\tplayingMatch.table[_x][_y] = 2;\n\t\t\t}\n\n\t\t\tif(hasWin(playingMatch.table, _x, _y)){\n\t\t\t\taddress loser;\n\t\t\t\tif(playingMatch.turno == 1){\n\t\t\t\t\tloser = playingMatch.playerTwo;\n\t\t\t\t}else{\n\t\t\t\t\tloser = playingMatch.playerOne;\n\t\t\t\t}\n\t\t\t\tdelete runningMatches[_index]; //TODO: I should avoid leaving gaps\n\t\t\t\temit matchEnded(_index, msg.sender, loser, playingMatch.table);\n\t\t\t} else {\n\t\t\t\tif(playingMatch.turno == 1){\n\t\t\t\t\tplayingMatch.turno = 2;\n\t\t\t\t}else{\n\t\t\t\t\tplayingMatch.turno = 1;\n\t\t\t\t}\n\t\t\t\trunningMatches[_index] = playingMatch;\n\t\t\t\temit nextMove(_index);\n\t\t\t}\n\t\t}\n\t}\n\n\tfunction getPendingMatchesCount() public view returns(uint){\n\t\treturn pendingMatches.length;\n\t}\n\n\tfunction getPendingMatchAtIndex(uint index) public view returns(uint, address) {\n    \treturn (index, pendingMatches[index-1].playerOne);\n\t}\n\n\tfunction senderHasNoCurrentGame() view public returns(bool){\n\t\treturn (senderIsNotProposing() && senderIsNotPlaying());\n\t}\n\n\tfunction senderIsNotProposing() view public returns(bool){\n\t\treturn (matchIndexOfProposer[msg.sender] == 0);\n\t}\n\n\tfunction senderIsNotPlaying() view public returns(bool){\n\t\treturn (matchIndexOfPlayers[msg.sender] == 0);\n\t}\n\n\tfunction isValidMatch(uint _index, address _proposer) view public returns(bool){\n\t\treturn (matchIndexOfProposer[_proposer] == _index);\n\t}\n\n\tfunction isHisTurn(uint _index) view public returns(bool){\n\t\treturn ((runningMatches[_index - 1].playerOne == msg.sender && runningMatches[_index - 1].turno == 1) || (runningMatches[_index - 1].playerTwo == msg.sender && runningMatches[_index - 1].turno == 2));\n\t}\n\n\tfunction hasWin(uint8[3][3] _table, uint _modifiedRow, uint _modifiedColumn) pure public returns(bool){\n\t\tif(_modifiedRow == _modifiedColumn){\n\t\t\treturn (\n\t\t\t\t\ttriEqual(_table[_modifiedRow][_modifiedColumn], _table[(_modifiedRow + 1) % 3][(_modifiedColumn + 1) % 3], _table[(_modifiedRow + 2) % 3][(_modifiedColumn + 2) % 3]) ||\n\t\t\t\t\ttriEqual(_table[_modifiedRow][_modifiedColumn], _table[(_modifiedRow + 1) % 3][_modifiedColumn], _table[(_modifiedRow + 2) % 3][_modifiedColumn]) ||\n\t\t\t\t\ttriEqual(_table[_modifiedRow][_modifiedColumn], _table[_modifiedRow][(_modifiedColumn + 1) % 3], _table[_modifiedRow][(_modifiedColumn + 2) % 3])\n\t\t\t\t);\n\t\t} else {\n\t\t\treturn (\n\t\t\t\t\ttriEqual(_table[_modifiedRow][_modifiedColumn], _table[(_modifiedRow + 1) % 3][_modifiedColumn], _table[(_modifiedRow + 2) % 3][_modifiedColumn]) ||\n\t\t\t\t\ttriEqual(_table[_modifiedRow][_modifiedColumn], _table[_modifiedRow][(_modifiedColumn + 1) % 3], _table[_modifiedRow][(_modifiedColumn + 2) % 3])\n\t\t\t\t);\n\t\t}\n\t}\n\n\tfunction triEqual(uint8 _a, uint8 _b, uint8 _c) pure public returns (bool){\n\t\treturn ((_a == _b) && (_a == _c));\n\t}\n}",
  "sourcePath": "/Users/luca/Desktop/tirocinio/tictactoe/contracts/Tictac.sol",
  "compiler": {
    "name": "solc",
    "version": "0.4.24+commit.e67f0147.Emscripten.clang"
  },
  "schemaVersion": "2.0.0",
  "updatedAt": "2018-06-19T14:55:30.932Z"
}