{
  "contractName": "Tictac",
  "abi": [
    {
      "constant": true,
      "inputs": [
        {
          "name": "",
          "type": "address"
        }
      ],
      "name": "matchIndexOfPlayers",
      "outputs": [
        {
          "name": "",
          "type": "uint256"
        }
      ],
      "payable": false,
      "stateMutability": "view",
      "type": "function"
    },
    {
      "constant": true,
      "inputs": [
        {
          "name": "",
          "type": "uint256"
        }
      ],
      "name": "runningMatches",
      "outputs": [
        {
          "name": "playerOne",
          "type": "address"
        },
        {
          "name": "playerTwo",
          "type": "address"
        },
        {
          "name": "turno",
          "type": "uint8"
        },
        {
          "name": "isEnded",
          "type": "bool"
        }
      ],
      "payable": false,
      "stateMutability": "view",
      "type": "function"
    },
    {
      "anonymous": false,
      "inputs": [
        {
          "indexed": false,
          "name": "index",
          "type": "uint256"
        },
        {
          "indexed": true,
          "name": "firstPlayer",
          "type": "address"
        }
      ],
      "name": "newProposedMatch",
      "type": "event"
    },
    {
      "anonymous": false,
      "inputs": [
        {
          "indexed": true,
          "name": "index",
          "type": "uint256"
        },
        {
          "indexed": true,
          "name": "proposer",
          "type": "address"
        },
        {
          "indexed": true,
          "name": "opponent",
          "type": "address"
        }
      ],
      "name": "matchJoined",
      "type": "event"
    },
    {
      "anonymous": false,
      "inputs": [
        {
          "indexed": false,
          "name": "index",
          "type": "uint256"
        },
        {
          "indexed": false,
          "name": "winner",
          "type": "address"
        },
        {
          "indexed": false,
          "name": "loser",
          "type": "address"
        },
        {
          "indexed": false,
          "name": "endTableStatus",
          "type": "uint8[3][3]"
        }
      ],
      "name": "matchEnded",
      "type": "event"
    },
    {
      "anonymous": false,
      "inputs": [
        {
          "indexed": false,
          "name": "index",
          "type": "uint256"
        }
      ],
      "name": "nextMove",
      "type": "event"
    },
    {
      "constant": false,
      "inputs": [],
      "name": "createMatch",
      "outputs": [],
      "payable": false,
      "stateMutability": "nonpayable",
      "type": "function"
    },
    {
      "constant": false,
      "inputs": [
        {
          "name": "_id",
          "type": "uint256"
        },
        {
          "name": "_proposer",
          "type": "address"
        }
      ],
      "name": "joinMatch",
      "outputs": [],
      "payable": false,
      "stateMutability": "nonpayable",
      "type": "function"
    },
    {
      "constant": true,
      "inputs": [],
      "name": "getRunningMatchesCount",
      "outputs": [
        {
          "name": "",
          "type": "uint256"
        }
      ],
      "payable": false,
      "stateMutability": "view",
      "type": "function"
    },
    {
      "constant": true,
      "inputs": [
        {
          "name": "index",
          "type": "uint256"
        }
      ],
      "name": "getRunningMatchAtIndex",
      "outputs": [
        {
          "name": "",
          "type": "uint256"
        },
        {
          "name": "",
          "type": "address"
        },
        {
          "name": "",
          "type": "address"
        },
        {
          "name": "",
          "type": "bool"
        }
      ],
      "payable": false,
      "stateMutability": "view",
      "type": "function"
    },
    {
      "constant": true,
      "inputs": [],
      "name": "senderIsNotPlaying",
      "outputs": [
        {
          "name": "",
          "type": "bool"
        }
      ],
      "payable": false,
      "stateMutability": "view",
      "type": "function"
    },
    {
      "constant": true,
      "inputs": [
        {
          "name": "_index",
          "type": "uint256"
        },
        {
          "name": "_proposer",
          "type": "address"
        }
      ],
      "name": "isValidMatch",
      "outputs": [
        {
          "name": "",
          "type": "bool"
        }
      ],
      "payable": false,
      "stateMutability": "view",
      "type": "function"
    },
    {
      "constant": true,
      "inputs": [
        {
          "name": "_index",
          "type": "uint256"
        }
      ],
      "name": "isAvailableMatch",
      "outputs": [
        {
          "name": "",
          "type": "bool"
        }
      ],
      "payable": false,
      "stateMutability": "view",
      "type": "function"
    },
    {
      "constant": true,
      "inputs": [
        {
          "name": "_index",
          "type": "uint256"
        }
      ],
      "name": "isHisTurn",
      "outputs": [
        {
          "name": "",
          "type": "bool"
        }
      ],
      "payable": false,
      "stateMutability": "view",
      "type": "function"
    },
    {
      "constant": true,
      "inputs": [
        {
          "name": "_table",
          "type": "uint8[3][3]"
        },
        {
          "name": "_modifiedRow",
          "type": "uint256"
        },
        {
          "name": "_modifiedColumn",
          "type": "uint256"
        }
      ],
      "name": "hasWin",
      "outputs": [
        {
          "name": "",
          "type": "bool"
        }
      ],
      "payable": false,
      "stateMutability": "pure",
      "type": "function"
    },
    {
      "constant": true,
      "inputs": [
        {
          "name": "_a",
          "type": "uint8"
        },
        {
          "name": "_b",
          "type": "uint8"
        },
        {
          "name": "_c",
          "type": "uint8"
        }
      ],
      "name": "triEqual",
      "outputs": [
        {
          "name": "",
          "type": "bool"
        }
      ],
      "payable": false,
      "stateMutability": "pure",
      "type": "function"
    }
  ],
  "bytecode": "0x608060405234801561001057600080fd5b506111c5806100206000396000f3006080604052600436106100ba576000357c0100000000000000000000000000000000000000000000000000000000900463ffffffff1680634ee58c12146100bf578063607c517114610116578063680c97371461015b5780637c7902bf146101bd578063967ce32d146102225780639bc0f9661461026f578063a0cc641a14610326578063a4627c4e1461033d578063bc8754a4146103f5578063d7e011481461043a578063e5de4f7b14610469578063fe0a236e14610494575b600080fd5b3480156100cb57600080fd5b50610100600480360381019080803573ffffffffffffffffffffffffffffffffffffffff169060200190929190505050610546565b6040518082815260200191505060405180910390f35b34801561012257600080fd5b506101416004803603810190808035906020019092919050505061055e565b604051808215151515815260200191505060405180910390f35b34801561016757600080fd5b506101a3600480360381019080803560ff169060200190929190803560ff169060200190929190803560ff1690602001909291905050506105c3565b604051808215151515815260200191505060405180910390f35b3480156101c957600080fd5b5061020860048036038101908080359060200190929190803573ffffffffffffffffffffffffffffffffffffffff1690602001909291905050506105e8565b604051808215151515815260200191505060405180910390f35b34801561022e57600080fd5b5061026d60048036038101908080359060200190929190803573ffffffffffffffffffffffffffffffffffffffff169060200190929190505050610634565b005b34801561027b57600080fd5b5061030c600480360381019080806101200190600380602002604051908101604052809291906000905b828210156102e75783826060020160038060200260405190810160405280929190826003602002808284378201915050505050815260200190600101906102a5565b505050509192919290803590602001909291908035906020019092919050505061076f565b604051808215151515815260200191505060405180910390f35b34801561033257600080fd5b5061033b610aa6565b005b34801561034957600080fd5b5061036860048036038101908080359060200190929190505050610ccd565b604051808573ffffffffffffffffffffffffffffffffffffffff1673ffffffffffffffffffffffffffffffffffffffff1681526020018473ffffffffffffffffffffffffffffffffffffffff1673ffffffffffffffffffffffffffffffffffffffff1681526020018360ff1660ff1681526020018215151515815260200194505050505060405180910390f35b34801561040157600080fd5b5061042060048036038101908080359060200190929190505050610d66565b604051808215151515815260200191505060405180910390f35b34801561044657600080fd5b5061044f610ed8565b604051808215151515815260200191505060405180910390f35b34801561047557600080fd5b5061047e610f21565b6040518082815260200191505060405180910390f35b3480156104a057600080fd5b506104bf60048036038101908080359060200190929190505050610f2d565b604051808581526020018473ffffffffffffffffffffffffffffffffffffffff1673ffffffffffffffffffffffffffffffffffffffff1681526020018373ffffffffffffffffffffffffffffffffffffffff1673ffffffffffffffffffffffffffffffffffffffff1681526020018215151515815260200194505050505060405180910390f35b60016020528060005260406000206000915090505481565b60008060006001840381548110151561057357fe5b906000526020600020906006020160010160009054906101000a900473ffffffffffffffffffffffffffffffffffffffff1673ffffffffffffffffffffffffffffffffffffffff16149050919050565b60008260ff168460ff161480156105df57508160ff168460ff16145b90509392505050565b600082600160008473ffffffffffffffffffffffffffffffffffffffff1673ffffffffffffffffffffffffffffffffffffffff1681526020019081526020016000205414905092915050565b61063c610ed8565b801561064e575061064d82826105e8565b5b801561065f575061065e8261055e565b5b151561066a57600080fd5b3360006001840381548110151561067d57fe5b906000526020600020906006020160010160006101000a81548173ffffffffffffffffffffffffffffffffffffffff021916908373ffffffffffffffffffffffffffffffffffffffff16021790555081600160003373ffffffffffffffffffffffffffffffffffffffff1673ffffffffffffffffffffffffffffffffffffffff168152602001908152602001600020819055503373ffffffffffffffffffffffffffffffffffffffff168173ffffffffffffffffffffffffffffffffffffffff16837f25f98e994d55b162f286b0496a33d7382a0b75056eb54b2b2b33a9000870284360405160405180910390a45050565b60008183141561096b5761082c848460038110151561078a57fe5b60200201518360038110151561079c57fe5b6020020151856003600187018115156107b157fe5b066003811015156107be57fe5b60200201516003600186018115156107d257fe5b066003811015156107df57fe5b6020020151866003600288018115156107f457fe5b0660038110151561080157fe5b602002015160036002870181151561081557fe5b0660038110151561082257fe5b60200201516105c3565b806108c857506108c7848460038110151561084357fe5b60200201518360038110151561085557fe5b60200201518560036001870181151561086a57fe5b0660038110151561087757fe5b60200201518460038110151561088957fe5b60200201518660036002880181151561089e57fe5b066003811015156108ab57fe5b6020020151856003811015156108bd57fe5b60200201516105c3565b5b80610964575061096384846003811015156108df57fe5b6020020151836003811015156108f157fe5b6020020151858560038110151561090457fe5b602002015160036001860181151561091857fe5b0660038110151561092557fe5b6020020151868660038110151561093857fe5b602002015160036002870181151561094c57fe5b0660038110151561095957fe5b60200201516105c3565b5b9050610a9f565b610a00848460038110151561097c57fe5b60200201518360038110151561098e57fe5b6020020151856003600187018115156109a357fe5b066003811015156109b057fe5b6020020151846003811015156109c257fe5b6020020151866003600288018115156109d757fe5b066003811015156109e457fe5b6020020151856003811015156109f657fe5b60200201516105c3565b80610a9c5750610a9b8484600381101515610a1757fe5b602002015183600381101515610a2957fe5b60200201518585600381101515610a3c57fe5b6020020151600360018601811515610a5057fe5b06600381101515610a5d57fe5b60200201518686600381101515610a7057fe5b6020020151600360028701811515610a8457fe5b06600381101515610a9157fe5b60200201516105c3565b5b90505b9392505050565b610aae610ffc565b6000610ab8610ed8565b1515610ac357600080fd5b600060a0604051908101604052803373ffffffffffffffffffffffffffffffffffffffff168152602001600073ffffffffffffffffffffffffffffffffffffffff168152602001600260ff168152602001848152602001600015158152509080600181540180825580915050906001820390600052602060002090600602016000909192909190915060008201518160000160006101000a81548173ffffffffffffffffffffffffffffffffffffffff021916908373ffffffffffffffffffffffffffffffffffffffff16021790555060208201518160010160006101000a81548173ffffffffffffffffffffffffffffffffffffffff021916908373ffffffffffffffffffffffffffffffffffffffff16021790555060408201518160010160146101000a81548160ff021916908360ff160217905550606082015181600201906003610c1292919061102b565b5060808201518160050160006101000a81548160ff0219169083151502179055505050905080600160003373ffffffffffffffffffffffffffffffffffffffff1673ffffffffffffffffffffffffffffffffffffffff168152602001908152602001600020819055503373ffffffffffffffffffffffffffffffffffffffff167fcaf011c804279a3e62b4f0a4c189986f8e29df399e98c00c079454d6f7b48dbd826040518082815260200191505060405180910390a25050565b600081815481101515610cdc57fe5b90600052602060002090600602016000915090508060000160009054906101000a900473ffffffffffffffffffffffffffffffffffffffff16908060010160009054906101000a900473ffffffffffffffffffffffffffffffffffffffff16908060010160149054906101000a900460ff16908060050160009054906101000a900460ff16905084565b60003373ffffffffffffffffffffffffffffffffffffffff16600060018403815481101515610d9157fe5b906000526020600020906006020160000160009054906101000a900473ffffffffffffffffffffffffffffffffffffffff1673ffffffffffffffffffffffffffffffffffffffff16148015610e1957506001600060018403815481101515610df557fe5b906000526020600020906006020160010160149054906101000a900460ff1660ff16145b80610ed157503373ffffffffffffffffffffffffffffffffffffffff16600060018403815481101515610e4857fe5b906000526020600020906006020160010160009054906101000a900473ffffffffffffffffffffffffffffffffffffffff1673ffffffffffffffffffffffffffffffffffffffff16148015610ed057506002600060018403815481101515610eac57fe5b906000526020600020906006020160010160149054906101000a900460ff1660ff16145b5b9050919050565b600080600160003373ffffffffffffffffffffffffffffffffffffffff1673ffffffffffffffffffffffffffffffffffffffff1681526020019081526020016000205414905090565b60008080549050905090565b60008060008084600060018703815481101515610f4657fe5b906000526020600020906006020160000160009054906101000a900473ffffffffffffffffffffffffffffffffffffffff16600060018803815481101515610f8a57fe5b906000526020600020906006020160010160009054906101000a900473ffffffffffffffffffffffffffffffffffffffff16600060018903815481101515610fce57fe5b906000526020600020906006020160050160009054906101000a900460ff1693509350935093509193509193565b610120604051908101604052806003905b611015611079565b81526020019060019003908161100d5790505090565b8260038101928215611068579160200282015b828111156110675782518290600361105792919061109c565b509160200191906001019061103e565b5b5090506110759190611136565b5090565b606060405190810160405280600390602082028038833980820191505090505090565b826003601f016020900481019282156111255791602002820160005b838211156110f657835183826101000a81548160ff021916908360ff16021790555092602001926001016020816000010492830192600103026110b8565b80156111235782816101000a81549060ff02191690556001016020816000010492830192600103026110f6565b505b5090506111329190611162565b5090565b61115f91905b8082111561115b57600081816111529190611192565b5060010161113c565b5090565b90565b61118f91905b8082111561118b57600081816101000a81549060ff021916905550600101611168565b5090565b90565b50600090555600a165627a7a72305820a7ad228302aa31b0b6be7944dd77601ff3256dfc5d689584d32be78f412760550029",
  "source": "pragma solidity ^0.4.24;\n\ncontract Tictac {\n\t\n    event newProposedMatch(uint index, address indexed firstPlayer);\n    event matchJoined(uint indexed index, address indexed proposer, address indexed opponent);\n    event matchEnded(uint index, address winner, address loser, uint8[3][3] endTableStatus);\n    event nextMove(uint index);\n\t\n\tstruct Match{\n    \taddress playerOne;\n    \taddress playerTwo;\n    \tuint8 turno;\n        uint8[3][3] table;\n        bool isEnded;\n\t}\n\n    Match[] public runningMatches;\n\n\t/* Questi mapping conterranno l'indice+1 della partita in corso di \"address\"\n\t * E' sommato ad uno così da poter distinguere il return \"0\" quando nessun\n\t * valore è stato mappato.\n\t */\n\tmapping(address => uint) public matchIndexOfPlayers;\n\t\n\tfunction createMatch() public {\n\t\trequire(senderIsNotPlaying());\n\t    uint8[3][3] memory emptyTable;\n\t    uint index = runningMatches.push(Match(msg.sender, 0x0, 2, emptyTable, false));\n\t    matchIndexOfPlayers[msg.sender] = index;\n\t    emit newProposedMatch(index, msg.sender);\n\t}\n\n\t/* Metodo utilizzato per joinare una partita proposta.\n\t */\n\tfunction joinMatch(uint _id, address _proposer) public {\n\t\t// Controlliamo che chi vuole partecipare non sta già svolgendo o proponendo una partita\n\t\t// Controlliamo che la partita sia ancora effettivamente valida e disponibile\n\t\trequire(senderIsNotPlaying() && isValidMatch(_id, _proposer) && isAvailableMatch(_id));\n\t\t// Giocatore 2 aggiunto alla partita\n\t\trunningMatches[_id - 1].playerTwo = msg.sender;\n\t    matchIndexOfPlayers[msg.sender] = _id;\n\t\t// Invio l'evento per aggiornare\n\t    emit matchJoined(_id, _proposer, msg.sender);\n\t}\n\n\t/*function play(uint _x, uint _y, uint _index) public{\n\t\trequire(_x>=0 && _x<3 && _y>=0 && _y<3 && isHisTurn(_index));\n\t\tMatch memory playingMatch = runningMatches[_index];\n\t\tif(playingMatch.table[_x][_y] == 0){\n\t\t\tif(playingMatch.playerOne == msg.sender){\n\t\t\t\tplayingMatch.table[_x][_y] = 1;\n\t\t\t} else{\n\t\t\t\tplayingMatch.table[_x][_y] = 2;\n\t\t\t}\n\n\t\t\tif(hasWin(playingMatch.table, _x, _y)){\n\t\t\t\taddress loser;\n\t\t\t\tif(playingMatch.turno == 1){\n\t\t\t\t\tloser = playingMatch.playerTwo;\n\t\t\t\t}else{\n\t\t\t\t\tloser = playingMatch.playerOne;\n\t\t\t\t}\n\t\t\t\tdelete runningMatches[_index]; //TODO: I should avoid leaving gaps\n\t\t\t\temit matchEnded(_index, msg.sender, loser, playingMatch.table);\n\t\t\t} else {\n\t\t\t\tif(playingMatch.turno == 1){\n\t\t\t\t\tplayingMatch.turno = 2;\n\t\t\t\t}else{\n\t\t\t\t\tplayingMatch.turno = 1;\n\t\t\t\t}\n\t\t\t\trunningMatches[_index] = playingMatch;\n\t\t\t\temit nextMove(_index);\n\t\t\t}\n\t\t}\n\t}*/\n\n\tfunction getRunningMatchesCount() public view returns(uint){\n\t\treturn runningMatches.length;\n\t}\n\n\tfunction getRunningMatchAtIndex(uint index) public view returns(uint, address, address, bool) {\n    \treturn (index, runningMatches[index-1].playerOne, runningMatches[index-1].playerTwo, runningMatches[index-1].isEnded);\n\t}\n\n\tfunction senderIsNotPlaying() view public returns(bool){\n\t\treturn (matchIndexOfPlayers[msg.sender] == 0);\n\t}\n\n\tfunction isValidMatch(uint _index, address _proposer) view public returns(bool){\n\t\treturn (matchIndexOfPlayers[_proposer] == _index);\n\t}\n\n\tfunction isAvailableMatch(uint _index) view public returns(bool){\n\t\treturn (runningMatches[_index - 1].playerTwo == 0x0);\n\t}\n\n\tfunction isHisTurn(uint _index) view public returns(bool){\n\t\treturn ((runningMatches[_index - 1].playerOne == msg.sender && runningMatches[_index - 1].turno == 1) || (runningMatches[_index - 1].playerTwo == msg.sender && runningMatches[_index - 1].turno == 2));\n\t}\n\n\tfunction hasWin(uint8[3][3] _table, uint _modifiedRow, uint _modifiedColumn) pure public returns(bool){\n\t\tif(_modifiedRow == _modifiedColumn){\n\t\t\treturn (\n\t\t\t\t\ttriEqual(_table[_modifiedRow][_modifiedColumn], _table[(_modifiedRow + 1) % 3][(_modifiedColumn + 1) % 3], _table[(_modifiedRow + 2) % 3][(_modifiedColumn + 2) % 3]) ||\n\t\t\t\t\ttriEqual(_table[_modifiedRow][_modifiedColumn], _table[(_modifiedRow + 1) % 3][_modifiedColumn], _table[(_modifiedRow + 2) % 3][_modifiedColumn]) ||\n\t\t\t\t\ttriEqual(_table[_modifiedRow][_modifiedColumn], _table[_modifiedRow][(_modifiedColumn + 1) % 3], _table[_modifiedRow][(_modifiedColumn + 2) % 3])\n\t\t\t\t);\n\t\t} else {\n\t\t\treturn (\n\t\t\t\t\ttriEqual(_table[_modifiedRow][_modifiedColumn], _table[(_modifiedRow + 1) % 3][_modifiedColumn], _table[(_modifiedRow + 2) % 3][_modifiedColumn]) ||\n\t\t\t\t\ttriEqual(_table[_modifiedRow][_modifiedColumn], _table[_modifiedRow][(_modifiedColumn + 1) % 3], _table[_modifiedRow][(_modifiedColumn + 2) % 3])\n\t\t\t\t);\n\t\t}\n\t}\n\n\tfunction triEqual(uint8 _a, uint8 _b, uint8 _c) pure public returns (bool){\n\t\treturn ((_a == _b) && (_a == _c));\n\t}\n}",
  "sourcePath": "/Users/luca/Desktop/tirocinio/tictactoe/contracts/Tictac.sol",
  "compiler": {
    "name": "solc",
    "version": "0.4.24+commit.e67f0147.Emscripten.clang"
  },
  "schemaVersion": "2.0.0",
  "updatedAt": "2018-06-22T13:31:50.329Z"
}